:100000000C9432000C9441030C946A030C949303F7
:100010000C944F000C944F000C944F000C944F0024
:100020000C944F000C944F000C944F000C944F0014
:100030000C944F000C944F000C944F000C944F0004
:100040000C944F000C944F000C944F000C944F00F4
:100050000C944F009700A900BB00CD00DF00F10019
:100060000301150111241FBECFE5D8E0DEBFCDBFCF
:1000700010E0A0E6B0E0E4EBFBE002C005900D92DA
:10008000A239B107D9F720E0A2E9B0E001C01D9282
:10009000AA39B207E1F70E9497010C94D8050C9495
:1000A0000000809193008F5F80939300089580916A
:1000B00092008F5F80939200853010F01092920032
:1000C000089585E890E00E941D0182E890E00E947A
:1000D0001D018FE790E00E941D018CE790E00E94D7
:1000E0001D0188E790E00E94510184E790E00E94A2
:1000F000510141E550E062E088E790E00E946B0129
:1001000047E550E062E084E790E00E946B0178945C
:100110000895E09193008E2F90E0FC013197E83034
:10012000F10508F089C0E65DFF4F0C94B805E09139
:100130009200F0E0EE0FFF1FEE0FFF1FE05AFF4F9F
:10014000228133814081518162E080E00E942C0154
:100150000895E0919200F0E0EE0FFF1FEE0FFF1FF9
:10016000E05AFF4F228133814081518166E080E077
:100170000E942C010895E0919200F0E0EE0FFF1F25
:10018000EE0FFF1FE05AFF4F2281338140815181E2
:100190006EE080E00E942C010895E0919200F0E072
:1001A000EE0FFF1FEE0FFF1FE05AFF4F228133813A
:1001B000408151816EE180E00E942C010895E09120
:1001C0009200F0E0EE0FFF1FEE0FFF1FE05AFF4F0F
:1001D00022813381408151816CE180E00E942C01B9
:1001E0000895E0919200F0E0EE0FFF1FEE0FFF1F69
:1001F000E05AFF4F228133814081518168E180E0E4
:100200000E942C010895E0919200F0E0EE0FFF1F94
:10021000EE0FFF1FE05AFF4F228133814081518151
:1002200060E180E00E942C01089540E06EE180E0F2
:100230000E942901109293000895009741F0FC015B
:10024000618141E080810E949C0180E0089581E00D
:1002500008950E94A2020895EF92FF920F931F93B8
:10026000CF93DF93F82EE62E8A01E90141E00E9448
:100270002901B80180E090E041E00E94EC0340E0F9
:100280006E2D8F2D0E942901BE0180E090E041E09B
:100290000E94EC03DF91CF911F910F91FF90EF909F
:1002A0000895CF93DF93009791F0EC01698140E0CE
:1002B00088810E949C018A81811105C0698141E089
:1002C00088810E941F0281E08B8380E001C081E071
:1002D000DF91CF9108951F93CF93DF93FC0190811D
:1002E000933039F48181823059F0833059F081E0C4
:1002F0001AC09330A9F481818230A1F412E003C0C6
:1003000010E001C011E0EA01812F0E94E402812F78
:100310000E941703BE01812F0E942E0380E003C0BC
:1003200081E001C081E0DF91CF911F9108950E948B
:1003300061000E948900FDCF683008F078C041114B
:100340003CC0813099F028F08230E9F0833041F1EF
:1003500070C02AB381E090E002C0880F991F6A95AF
:10036000E2F7809582238ABB80E0089527B381E07D
:1003700090E002C0880F991F6A95E2F7809582236A
:1003800087BB80E0089524B381E090E002C0880F2D
:10039000991F6A95E2F78095822384BB80E00895D7
:1003A00021B381E090E002C0880F991F6A95E2F7BF
:1003B0008095822381BB80E008954130E1F5813052
:1003C00091F028F08230D9F0833029F136C02AB379
:1003D00081E090E002C0880F991F6A95E2F7822BB6
:1003E0008ABB80E0089527B381E090E002C0880FC7
:1003F000991F6A95E2F7822B87BB80E0089524B3AA
:1004000081E090E002C0880F991F6A95E2F7822B85
:1004100084BB80E0089521B381E090E002C0880FA2
:10042000991F6A95E2F7822B81BB80E0089582E0F4
:10043000089581E0089583E0089581E0089568308B
:1004400008F078C041113CC0813099F028F082302A
:10045000E9F0833041F170C02BB381E090E002C03D
:10046000880F991F6A95E2F7809582238BBB80E005
:10047000089528B381E090E002C0880F991F6A9523
:10048000E2F78095822388BB80E0089525B381E060
:1004900090E002C0880F991F6A95E2F78095822349
:1004A00085BB80E0089522B381E090E002C0880F10
:1004B000991F6A95E2F78095822382BB80E00895B8
:1004C0004130E1F5813091F028F08230D9F083306D
:1004D00029F136C02BB381E090E002C0880F991F4C
:1004E0006A95E2F7822B8BBB80E0089528B381E008
:1004F00090E002C0880F991F6A95E2F7822B88BBB3
:1005000080E0089525B381E090E002C0880F991F34
:100510006A95E2F7822B85BB80E0089522B381E0E3
:1005200090E002C0880F991F6A95E2F7822B82BB88
:1005300080E0089581E0089581E0089583E00895C2
:1005400081E00895813091F028F08230D9F0833035
:1005500029F130C08BB3962F909589238BBB413006
:1005600059F58BB3682B6BBB80E0089588B3962F49
:100570009095892388BB413009F588B3682B68BB07
:1005800080E0089585B3962F9095892385BB4130EF
:10059000B9F485B3682B65BB80E0089582B3962FCC
:1005A0009095892382BB413069F482B3682B62BB8A
:1005B00080E0089581E0089580E0089580E0089546
:1005C00080E0089580E00895643058F5623010F4BA
:1005D000823049F1813061F018F08230B1F025C0ED
:1005E00085B78C7F85BF85B7682B65BF80E0089590
:1005F00085B7837F85BF85B770E0660F771F660F6D
:10060000771F682B65BF80E0089584B78F7B84BF18
:1006100084B790E4699FB0011124682B64BF80E027
:10062000089581E0089581E0089581E00895813082
:1006300049F018F0823059F00FC08BB780648BBF3F
:1006400080E008958BB780688BBF80E008958BB7FA
:1006500080628BBF80E0089581E00895833068F464
:100660006115710561F0E82FF0E0EE0FFF1FEC5609
:10067000FF4F7183608380E0089581E0089581E0F9
:1006800008951F920F920FB60F9211242F933F934C
:100690004F935F936F937F938F939F93AF93BF938A
:1006A000EF93FF93E0919400F0919500309709F05B
:1006B0000995FF91EF91BF91AF919F918F917F919C
:1006C0006F915F914F913F912F910F900FBE0F90BF
:1006D0001F9018951F920F920FB60F9211242F930F
:1006E0003F934F935F936F937F938F939F93AF93BA
:1006F000BF93EF93FF93E0919600F09197003097AE
:1007000009F00995FF91EF91BF91AF919F918F9162
:100710007F916F915F914F913F912F910F900FBEFD
:100720000F901F9018951F920F920FB60F921124E1
:100730002F933F934F935F936F937F938F939F93E9
:10074000AF93BF93EF93FF93E0919800F0919900DE
:10075000309709F00995FF91EF91BF91AF919F916B
:100760008F917F916F915F914F913F912F910F905A
:100770000FBE0F901F901895813089F028F08230BD
:1007800031F0833039F009C030E080E00AC038E051
:1007900080E007C038E480E004C081E002C030E4BB
:1007A00080E023B7277B23BF93B7932B93BF089594
:1007B0009FEF980F973040F493B7987F93BF93B70C
:1007C000892B83BF80E0089581E0089583B7887FF7
:1007D00083BF089582BF08958F929F92AF92BF9278
:1007E000CF92DF92EF92FF92CF93DF936B017C0168
:1007F000423059F49B01AC0160E472E48FE090E078
:100800000E94A8056B017C010AC0413041F4A8EEAA
:10081000B3E09B01AC010E94BE056B017C0188E83E
:10082000C81683E1D806E104F104C8F088EAC816C6
:1008300081E6D806E104F104A0F088E4C81688EE49
:10084000D80681E0E806F10470F080E2C81681EA7B
:10085000D80687E0E806F10440F4D4E007C0D1E010
:1008600005C0D2E003C0D3E001C0D5E0ED2FF0E039
:100870003197EE0FFF1FE857FF4F6081718176952A
:100880006795769567957695679580E090E00E94EC
:100890001A054B015C01C701B6010E941A05A501AA
:1008A00094010E9479040E94EB04F62EC72F80E089
:1008B0000E94BC038F2D81950E94EA038D2F0E9418
:1008C000D80390E007C008B600FEFDCF88B781606E
:1008D00088BF9F5FC917B8F70E94E603DF91CF91E9
:1008E000FF90EF90DF90CF90BF90AF909F908F9050
:1008F00008950E948D040C946E050E94670558F0BF
:100900000E94600540F029F45F3F29F00C945705E0
:1009100051110C94A2050C945D050E947F0568F3AB
:100920009923B1F3552391F3951B550BBB27AA27A8
:1009300062177307840738F09F5F5F4F220F331FE2
:10094000441FAA1FA9F335D00E2E3AF0E0E832D0AA
:1009500091505040E695001CCAF72BD0FE2F29D0AD
:10096000660F771F881FBB1F261737074807AB077F
:10097000B0E809F0BB0B802DBF01FF2793585F4FF4
:100980003AF09E3F510578F00C9457050C94A2055F
:100990005F3FE4F3983ED4F3869577956795B795D6
:1009A000F7959F5FC9F7880F911D9695879597F9E1
:1009B0000895E1E0660F771F881FBB1F621773075A
:1009C0008407BA0720F0621B730B840BBA0BEE1F6F
:1009D00088F7E09508950E94870588F09F5798F062
:1009E000B92F9927B751B0F0E1F0660F771F881F34
:1009F000991F1AF0BA95C9F714C0B13091F00E944E
:100A0000A105B1E008950C94A105672F782F8827E0
:100A1000B85F39F0B93FCCF3869577956795B39574
:100A2000D9F73EF490958095709561957F4F8F4FE3
:100A30009F4F0895E89409C097FB3EF490958095E8
:100A4000709561957F4F8F4F9F4F9923A9F0F92F94
:100A500096E9BB279395F695879577956795B79512
:100A6000F111F8CFFAF4BB0F11F460FF1BC06F5FF8
:100A70007F4F8F4F9F4F16C0882311F096E911C00A
:100A8000772321F09EE8872F762F05C0662371F02B
:100A900096E8862F70E060E02AF09A95660F771F3F
:100AA000881FDAF7880F9695879597F9089597F933
:100AB0009F6780E870E060E008959FEF80EC089504
:100AC00000240A941616170618060906089500242D
:100AD0000A9412161306140605060895092E0394A7
:100AE000000C11F4882352F0BB0F40F4BF2B11F41B
:100AF00060FF04C06F5F7F4F8F4F9F4F089557FD7A
:100B00009058440F551F59F05F3F71F04795880F7B
:100B100097FB991F61F09F3F79F087950895121612
:100B200013061406551FF2CF4695F1DF08C01616BE
:100B300017061806991FF1CF86957105610508946F
:100B40000895E894BB2766277727CB0197F9089586
:100B5000DB018F939F930E94BE05BF91AF91A29F2F
:100B6000800D911DA39F900DB29F900D11240895AB
:100B7000EE0FFF1F0590F491E02D09940E94C90526
:100B8000A59F900DB49F900DA49F800D911D1124E1
:100B90000895A29FB001B39FC001A39F700D811D56
:100BA0001124911DB29F700D811D1124911D089576
:040BB000F894FFCFE7
:100BB40064008403C80020032C01BC02F401F40186
:100BC4002003C80003030201030202010004010020
:100BD40003010002010001010100080040000001BE
:020BE40000040B
:00000001FF
