S00C0000733374322E73726563CC
S11300000C9432000C94C3010C94EC010C94150272
S11300100C944F000C944F000C944F000C944F0020
S11300200C944F000C944F000C944F000C944F0010
S11300300C944F000C944F000C944F000C944F0000
S11300400C944F000C944F000C944F000C944F00F0
S11300500C944F006F0075007B00810087008D00B9
S11300609300990011241FBECFE5D8E0DEBFCDBFB9
S113007010E0A0E6B0E0E4EAF4E002C005900D92DE
S1130080A037B107D9F720E0A0E7B0E001C01D9286
S1130090A737B207E1F70E94DE000C9450020C94DB
S11300A00000809170008F5F8093700008950E941B
S11300B03E0241E550E060E08CE690E00E94B20030
S11300C078940895E09170008E2F90E0FC013197B0
S11300D0E830F105A8F5E65DFF4F0C944A0261E0B3
S11300E089E690E00E94A100089561E086E690E030
S11300F00E94A100089561E083E690E00E94A100BF
S1130100089561E080E690E00E94A100089560E017
S113011089E690E00E94A100089560E086E690E000
S11301200E94A100089560E083E690E00E94A1008F
S1130130089560E080E690E00E94A10010927000B3
S11301400895009759F0FC012281222349F0462F9B
S1130150618180810E94E30080E0089581E0089538
S113016081E008951F93CF93DF93FC019081933036
S113017039F48181823059F0833059F081E01AC01A
S11301809330A9F481818230A1F412E003C010E01D
S113019001C011E0EA01812F0E946601812F0E94B3
S11301A09901BE01812F0E94B00180E003C081E06B
S11301B001C081E0DF91CF911F9108950E94570003
S11301C00E946200FDCF683008F078C041113CC045
S11301D0813099F028F08230E9F0833041F170C029
S11301E02BB381E090E002C0880F991F6A95E2F773
S11301F0809582238BBB80E0089528B381E090E052
S113020002C0880F991F6A95E2F78095822388BB04
S113021080E0089525B381E090E002C0880F991F23
S11302206A95E2F78095822385BB80E0089522B326
S113023081E090E002C0880F991F6A95E2F78095EB
S1130240822382BB80E008954130E1F5813091F052
S113025028F08230D9F0833029F136C02BB381E005
S113026090E002C0880F991F6A95E2F7822B8BBB3E
S113027080E0089528B381E090E002C0880F991FC0
S11302806A95E2F7822B88BB80E0089525B381E06C
S113029090E002C0880F991F6A95E2F7822B85BB14
S11302A080E0089522B381E090E002C0880F991F96
S11302B06A95E2F7822B82BB80E0089582E008957C
S11302C081E0089583E0089581E00895643058F54D
S11302D0623010F4823049F1813061F018F08230DC
S11302E0B1F025C085B78C7F85BF85B7682B65BF06
S11302F080E0089585B7837F85BF85B770E0660F7A
S1130300771F660F771F682B65BF80E0089584B759
S11303108F7B84BF84B790E4699FB0011124682B5C
S113032064BF80E0089581E0089581E0089581E04C
S11303300895813049F018F0823059F00FC08BB71E
S113034080648BBF80E008958BB780688BBF80E0AA
S113035008958BB780628BBF80E0089581E0089593
S1130360833068F46115710561F0E82FF0E0EE0F59
S1130370FF1FEF58FF4F7183608380E0089581E091
S1130380089581E008951F920F920FB60F921124E1
S11303902F933F934F935F936F937F938F939F9389
S11303A0AF93BF93EF93FF93E0917100F0917200CC
S11303B0309709F00995FF91EF91BF91AF919F910B
S11303C08F917F916F915F914F913F912F910F90FA
S11303D00FBE0F901F9018951F920F920FB60F9299
S11303E011242F933F934F935F936F937F938F9336
S11303F09F93AF93BF93EF93FF93E0917300F091BA
S11304007400309709F00995FF91EF91BF91AF9176
S11304109F918F917F916F915F914F913F912F9118
S11304200F900FBE0F901F9018951F920F920FB64A
S11304300F9211242F933F934F935F936F937F9366
S11304408F939F93AF93BF93EF93FF93E0917500C6
S1130450F0917600309709F00995FF91EF91BF91E3
S1130460AF919F918F917F916F915F914F913F9148
S11304702F910F900FBE0F901F9018958FEF8ABB8E
S113048087BB84BB83EF81BB1BBA18BA15BA8CE057
S113049082BB0895EE0FFF1F0590F491E02D09949F
S10704A0F894FFCFFA
S11304A4000601000401000201000001030200012E
S9030000FC
