:100000000C9432000C944F000C944F000C944F0051
:100010000C944F000C944F000C944F000C944F0024
:100020000C944F000C944F000C944F000C944F0014
:100030000C944F000C944F000C944F000C944F0004
:100040000C944F000C944F000C944F000C944F00F4
:100050000C944F00820088008E0094009A00A0004B
:10006000A600AC0011241FBECFE5D8E0DEBFCDBF97
:1000700010E0A0E6B0E0ECE3F5E002C005900D92E0
:10008000A037B107D9F720E0A0E7B0E001C01D928A
:10009000A237B207E1F70E9448010C949C020C942D
:1000A00000008DE690E00E94D4008AE690E00E9475
:1000B000D40087E690E00E94D40084E690E00E949D
:1000C000D40080E690E00E94F100089561E770E0BE
:1000D00080E690E00E940B0180917100813009F070
:1000E00062C080917000E1E0E80FE09370008E2F15
:1000F00090E0FC013197E830F105B0F5E65DFF4F87
:100100000C94960261E08DE690E00E94E00042C00F
:1001100061E08AE690E00E94E0003CC061E087E692
:1001200090E00E94E00036C061E084E690E00E942A
:10013000E00030C060E08DE690E00E94E0002AC060
:1001400060E08AE690E00E94E00024C060E087E67C
:1001500090E00E94E0001EC060E084E690E00E9413
:10016000E0001092700016C060E08DE690E00E9402
:10017000E00060E08AE690E00E94E00060E087E650
:1001800090E00E94E00060E084E690E00E94E000E1
:10019000109270002FEF82E597E021508040904050
:1001A000E1F700C000000895009741F0FC01618173
:1001B00041E080810E944D0180E0089581E0089532
:1001C000009759F0FC012281222349F0462F6181DA
:1001D00080810E94D00180E0089581E0089581E04F
:1001E0000895CF93DF93009791F0EC01698140E08F
:1001F00088810E944D018A81811105C0698141E099
:1002000088810E94D00181E08B8380E001C081E081
:10021000DF91CF910895EF92FF920F931F93CF93A9
:10022000DF931F92CDB7DEB7009719F16115710505
:1002300011F1FC012381222301F17B018C016181F9
:10024000AE014F5F5F4F80810E945302F8018281AF
:10025000823040F481E09981911180E0F701808340
:1002600080E00EC0823059F48981F701808380E0FC
:1002700007C081E005C081E003C081E001C081E0EA
:100280000F90DF91CF911F910F91FF90EF90089504
:100290000E9451000E946600FDCF683008F078C0CF
:1002A00041113CC0813099F028F08230E9F0833070
:1002B00041F170C02AB381E090E002C0880F991F1D
:1002C0006A95E2F7809582238ABB80E0089527B380
:1002D00081E090E002C0880F991F6A95E2F780954F
:1002E000822387BB80E0089524B381E090E002C0C0
:1002F000880F991F6A95E2F78095822384BB80E07E
:10030000089521B381E090E002C0880F991F6A959B
:10031000E2F78095822381BB80E008954130E1F5CA
:10032000813091F028F08230D9F0833029F136C045
:100330002AB381E090E002C0880F991F6A95E2F726
:10034000822B8ABB80E0089527B381E090E002C051
:10035000880F991F6A95E2F7822B87BB80E008958A
:1003600024B381E090E002C0880F991F6A95E2F7FC
:10037000822B84BB80E0089521B381E090E002C02D
:10038000880F991F6A95E2F7822B81BB80E0089560
:1003900082E0089581E0089583E0089581E0089562
:1003A000683008F078C041113CC0813099F028F0E5
:1003B0008230E9F0833041F170C02BB381E090E0EE
:1003C00002C0880F991F6A95E2F7809582238BBB44
:1003D00080E0089528B381E090E002C0880F991F63
:1003E0006A95E2F78095822388BB80E0089525B363
:1003F00081E090E002C0880F991F6A95E2F780952E
:10040000822385BB80E0089522B381E090E002C0A2
:10041000880F991F6A95E2F78095822382BB80E05E
:1004200008954130E1F5813091F028F08230D9F023
:10043000833029F136C02BB381E090E002C0880FF1
:10044000991F6A95E2F7822B8BBB80E0089528B351
:1004500081E090E002C0880F991F6A95E2F7822B35
:1004600088BB80E0089525B381E090E002C0880F4A
:10047000991F6A95E2F7822B85BB80E0089522B32D
:1004800081E090E002C0880F991F6A95E2F7822B05
:1004900082BB80E0089581E0089581E0089583E0C3
:1004A000089581E0089541155105D1F16830D0F5E6
:1004B000813091F028F08230D9F0833029F134C0B6
:1004C00089B390E002C0959587956A95E2F78170AF
:1004D000FA01808380E0089586B390E002C095958C
:1004E00087956A95E2F78170FA01808380E008952C
:1004F00083B390E002C0959587956A95E2F7817085
:10050000FA01808380E0089580B390E002C0959561
:1005100087956A95E2F78170FA01808380E00895FB
:1005200082E0089582E0089581E00895EE0FFF1FB4
:0C0530000590F491E02D0994F894FFCFA1
:10053C00000002010004010003010002010001019E
:00000001FF
