S00C0000733374322E73726563CC
S11300000C9432000C94FF010C9428020C945102BD
S11300100C944F000C944F000C944F000C944F0020
S11300200C944F000C944F000C944F000C944F0010
S11300300C944F000C944F000C944F000C944F0000
S11300400C944F000C944F000C944F000C944F00F0
S11300500C944F0081009300A500B700C900DB0099
S1130060ED00FF0011241FBECFE5D8E0DEBFCDBFF9
S113007010E0A0E6B0E0EAE1F9E002C005900D92DC
S1130080A638B107D9F720E0A6E8B0E001C01D9278
S1130090AE38B207E1F70E945B010C948B040C9418
S11300A00000809187008F5F80938700089580917E
S11300B086008F5F80938600853010F01092860052
S11300C008950E94200341E550E062E088E790E053
S11300D00E942F0147E550E062E084E790E00E942F
S11300E02F0178940895E09187008E2F90E0FC0111
S11300F03197E830F10508F089C0E65DFF4F0C94B4
S11301006B04E0918600F0E0EE0FFF1FEE0FFF1F7F
S1130110E05AFF4F228133814081518161E080E0C8
S11301200E940A010895E0918600F0E0EE0FFF1F9F
S1130130EE0FFF1FE05AFF4F22813381408151812E
S113014065E080E00E940A010895E0918600F0E0F5
S1130150EE0FFF1FEE0FFF1FE05AFF4F2281338186
S11301604081518165E180E00E940A010895E09197
S11301708600F0E0EE0FFF1FEE0FFF1FE05AFF4F67
S1130180228133814081518165E580E00E940A012A
S11301900895E0918600F0E0EE0FFF1FEE0FFF1FC1
S11301A0E05AFF4F228133814081518164E580E030
S11301B00E940A010895E0918600F0E0EE0FFF1F0F
S11301C0EE0FFF1FE05AFF4F22813381408151819E
S11301D060E580E00E940A010895E0918600F0E065
S11301E0EE0FFF1FEE0FFF1FE05AFF4F22813381F6
S11301F04081518160E480E00E940A01089540E05A
S113020065E580E00E9407011092870008950E942E
S113021060010895EF92FF920F931F93CF93DF93A2
S1130220F82EE62E8A01E90141E00E940701B80197
S113023080E090E041E00E94A70240E06E2D8F2D07
S11302400E940701BE0180E090E041E00E94A70205
S1130250DF91CF911F910F91FF90EF9008951F931D
S1130260CF93DF93FC019081933039F48181823004
S113027059F0833059F081E01AC09330A9F4818198
S11302808230A1F412E003C010E001C011E0EA01E1
S1130290812F0E94A201812F0E94D501BE01812FCE
S11302A00E94EC0180E003C081E001C081E0DF91A5
S11302B0CF911F9108950E9461000E947300FDCFA9
S11302C0813091F028F08230D9F0833029F130C0A8
S11302D08BB3962F909589238BBB413059F58BB303
S11302E0682B6BBB80E0089588B3962F9095892383
S11302F088BB413009F588B3682B68BB80E008955A
S113030085B3962F9095892385BB4130B9F485B385
S1130310682B65BB80E0089582B3962F909589235E
S113032082BB413069F482B3682B62BB80E00895DC
S113033081E0089580E0089580E0089580E00895C4
S113034080E00895643058F5623010F4823049F149
S1130350813061F018F08230B1F025C085B78C7F10
S113036085BF85B7682B65BF80E0089585B7837F17
S113037085BF85B770E0660F771F660F771F682B00
S113038065BF80E0089584B78F7B84BF84B790E411
S1130390699FB0011124682B64BF80E0089581E057
S11303A0089581E0089581E00895813049F018F0BE
S11303B0823059F00FC08BB780648BBF80E0089502
S11303C08BB780688BBF80E008958BB780628BBF4A
S11303D080E0089581E00895833068F46115710523
S11303E061F0E82FF0E0EE0FFF1FE857FF4F718335
S11303F0608380E0089581E0089581E008951F926C
S11304000F920FB60F9211242F933F934F935F9344
S11304106F937F938F939F93AF93BF93EF93FF93C8
S1130420E0918800F0918900309709F00995FF91D7
S1130430EF91BF91AF919F918F917F916F915F9158
S11304404F913F912F910F900FBE0F901F901895D1
S11304501F920F920FB60F9211242F933F934F9335
S11304605F936F937F938F939F93AF93BF93EF9318
S1130470FF93E0918A00F0918B00309709F0099581
S1130480FF91EF91BF91AF919F918F917F916F9168
S11304905F914F913F912F910F900FBE0F901F903E
S11304A018951F920F920FB60F9211242F933F931A
S11304B04F935F936F937F938F939F93AF93BF9368
S11304C0EF93FF93E0918C00F0918D00309709F049
S11304D00995FF91EF91BF91AF919F918F917F917A
S11304E06F915F914F913F912F910F900FBE0F909D
S11304F01F901895813061F028F0823029F0833004
S113050029F00FC020E005C028E003C028E401C0A2
S113051020E493B7977B93BF83B7822B83BF80E09C
S1130520089581E008959FEF980F973040F493B7B2
S1130530987F93BF93B7892B83BF80E0089581E0B0
S1130540089583B7887F83BF089582BF08958F92EB
S11305509F92AF92BF92CF92DF92EF92FF92CF938E
S1130560DF936B017C01423059F49B01AC0160E4E0
S113057072E48FE090E00E945B046B017C010FC089
S1130580413049F4A8EEB3E09B01AC010E94710430
S11305906B017C0104C0442311F081E046C080EE6D
S11305A0C81683E9D80684E0E806F10448F489E82B
S11305B0C81683E1D806E104F10420F4D1E003C0B5
S11305C0D5E001C0D3E0ED2FF0E03197EE0FFF1F2F
S11305D0E458FF4F6081718180E090E00E94CD0378
S11305E04B015C01C701B6010E94CD03A501940132
S11305F00E942C030E949E03F62EC72F80E00E94C7
S11306007A028F2D81950E94A5028D2F0E9493025C
S113061090E007C008B600FEFDCF88B7816088BFB0
S11306209F5FC917B8F70E94A102DF91CF91FF9095
S1130630EF90DF90CF90BF90AF909F908F900895F0
S11306408FEF8ABB87BB84BB83EF81BB1BBA18BA0D
S113065015BA8CE082BB08950E9440030C942104D7
S11306600E941A0458F00E94130440F029F45F3FDA
S113067029F00C940A0451110C9455040C941004A0
S11306800E94320468F39923B1F3552391F3951B27
S1130690550BBB27AA2762177307840738F09F5F9F
S11306A05F4F220F331F441FAA1FA9F335D00E2E0C
S11306B03AF0E0E832D091505040E695001CCAF779
S11306C02BD0FE2F29D0660F771F881FBB1F26173C
S11306D037074807AB07B0E809F0BB0B802DBF0113
S11306E0FF2793585F4F3AF09E3F510578F00C94E2
S11306F00A040C9455045F3FE4F3983ED4F38695C2
S113070077956795B795F7959F5FC9F7880F911D02
S11307109695879597F90895E1E0660F771F881FEE
S1130720BB1F621773078407BA0720F0621B730BA1
S1130730840BBA0BEE1F88F7E09508950E943A04E3
S113074088F09F5798F0B92F9927B751B0F0E1F08E
S1130750660F771F881F991F1AF0BA95C9F714C03E
S1130760B13091F00E945404B1E008950C94540403
S1130770672F782F8827B85F39F0B93FCCF3869577
S113078077956795B395D9F73EF4909580957095D4
S113079061957F4F8F4F9F4F0895E89409C097FB51
S11307A03EF490958095709561957F4F8F4F9F4F44
S11307B09923A9F0F92F96E9BB279395F695879588
S11307C077956795B795F111F8CFFAF4BB0F11F44B
S11307D060FF1BC06F5F7F4F8F4F9F4F16C08823F2
S11307E011F096E911C0772321F09EE8872F762F28
S11307F005C0662371F096E8862F70E060E02AF069
S11308009A95660F771F881FDAF7880F9695879554
S113081097F9089597F99F6780E870E060E008957C
S11308209FEF80EC089500240A9416161706180604
S11308300906089500240A941216130614060506E0
S11308400895092E0394000C11F4882352F0BB0F71
S113085040F4BF2B11F460FF04C06F5F7F4F8F4FD4
S11308609F4F089557FD9058440F551F59F05F3F0F
S113087071F04795880F97FB991F61F09F3F79F0BE
S113088087950895121613061406551FF2CF469540
S1130890F1DF08C0161617061806991FF1CF8695C2
S11308A07105610508940895E894BB2766277727A6
S11308B0CB0197F90895DB018F939F930E947104F4
S11308C0BF91AF91A29F800D911DA39F900DB29FE8
S11308D0900D11240895EE0FFF1F0590F491E02D63
S11308E009940E947C04A59F900DB49F900DA49F31
S11308F0800D911D11240895A29FB001B39FC001E2
S1130900A39F700D811D1124911DB29F700D811D37
S10D09101124911D0895F894FFCFFF
S113091A64008403C80020032C01BC02F401F4011E
S113092A2003C800030300010302000101000800B8
S109093A40000901000465
S9030000FC
