S01000004D495352415F30332E73726563D6
S11300000C9431000C94AE020C94D7020C940003AF
S11300100C944E000C944E000C944E000C944E0024
S11300200C944E000C944E000C944E000C944E0014
S11300300C944E000C944E000C944E000C944E0004
S11300400C944E000C944E000C944E000C944E00F4
S11300500C944E008E00A000B200C400D600E8004C
S1130060FA0011241FBECFE5D8E0DEBFCDBF10E0FB
S1130070A0E6B0E0EEE6FAE002C005900D92A239E7
S1130080B107D9F720E0A2E9B0E001C01D92AA3976
S1130090B207E1F70E947B010C9435050C94000033
S11300A0809193008F5F80939300089580919200D4
S11300B08F5F80939200853010F010929200089523
S11300C085E890E00E94140182E890E00E94140107
S11300D08FE790E00E9414018CE790E00E941401E5
S11300E040E550E063E088E790E00E94480146E57F
S11300F050E063E084E790E00E944801789408951A
S1130100E09193008E2F90E0FC013197E730F105E8
S113011008F082C0E65DFF4F0C941505E091920053
S1130120F0E0EE0FFF1FEE0FFF1FE05AFF4F22819A
S113013033814081518162E080E00E94230108956F
S1130140E0919200F0E0EE0FFF1FEE0FFF1FE05A68
S1130150FF4F228133814081518166E080E00E941B
S113016023010895E0919200F0E0EE0FFF1FEE0FDF
S1130170FF1FE05AFF4F22813381408151816EE09D
S113018080E00E9423010895E0919200F0E0EE0FD8
S1130190FF1FEE0FFF1FE05AFF4F22813381408182
S11301A051816EE180E00E9423010895E091920064
S11301B0F0E0EE0FFF1FEE0FFF1FE05AFF4F22810A
S11301C03381408151816CE180E00E9423010895D4
S11301D0E0919200F0E0EE0FFF1FEE0FFF1FE05AD8
S11301E0FF4F228133814081518168E180E00E9488
S11301F023010895E0919200F0E0EE0FFF1FEE0F4F
S1130200FF1FE05AFF4F228133814081518160E119
S113021080E00E94230108951092930040E06EE173
S113022080E00E9420010895009741F0FC01618163
S113023041E080810E94800180E0089581E008957A
S11302400E9403020895EF92FF920F931F93CF939E
S1130250DF93F82EE62E8A01E90141E00E94200195
S1130260B80180E090E041E00E94470340E06E2D39
S11302708F2D0E942001BE0180E090E041E00E94A9
S11302804703DF91CF911F910F91FF90EF90089555
S11302900F931F93CF93DF93FC019081933041F42C
S11302A08181823061F0833069F4D1E0C0E010C014
S11302B0933051F48181823049F0C1E009C0D0E02B
S11302C0C0E006C0C1E004C0C1E002C0D2E0C0E0AA
S11302D0C1110BC08A018D2F0E9445028D2F0E94EF
S11302E07F02B8018D2F0E9496028C2FDF91CF914F
S11302F01F910F9108950E9460000E948000FDCF1D
S1130300683008F078C041113CC0813099F028F081
S11303108230E9F0833041F170C02AB381E090E08B
S113032002C0880F991F6A95E2F7809582238ABBE1
S113033080E0089527B381E090E002C0880F991F00
S11303406A95E2F78095822387BB80E0089524B301
S113035081E090E002C0880F991F6A95E2F78095CA
S1130360822384BB80E0089521B381E090E002C041
S1130370880F991F6A95E2F78095822381BB80E0FC
S113038008954130E1F5813091F028F08230D9F0C0
S1130390833029F136C02AB381E090E002C0880F8F
S11303A0991F6A95E2F7822B8ABB80E0089527B3F0
S11303B081E090E002C0880F991F6A95E2F7822BD2
S11303C087BB80E0089524B381E090E002C0880FE9
S11303D0991F6A95E2F7822B84BB80E0089521B3CC
S11303E081E090E002C0880F991F6A95E2F7822BA2
S11303F081BB80E0089582E0089581E0089583E060
S1130400089581E00895813091F028F08230D9F088
S1130410833029F130C08BB3962F909589238BBB01
S1130420413059F58BB3682B6BBB80E0089588B3DA
S1130430962F9095892388BB413009F588B3682BA2
S113044068BB80E0089585B3962F9095892385BB7A
S11304504130B9F485B3682B65BB80E0089582B35D
S1130460962F9095892382BB413069F482B3682B1F
S113047062BB80E0089581E0089580E0089580E003
S1130480089580E0089580E00895643030F4623087
S113049030F4823031F490E005C090E003C091E084
S11304A001C091E0913039F5813061F018F082306B
S11304B0B1F023C085B78C7F85BF85B7682B65BF36
S11304C080E0089585B7837F85BF85B770E0660FA8
S11304D0771F660F771F682B65BF80E0089584B788
S11304E08F7B84BF84B790E4699FB0011124682B8B
S11304F064BF80E0089581E0089581E0089581302B
S113050049F018F0823059F00FC08BB780648BBF6C
S113051080E008958BB780688BBF80E008958BB727
S113052080628BBF80E0089581E00895833028F4D1
S11305306115710521F490E003C090E001C091E0E1
S1130540913051F4E82FF0E0EE0FFF1FEC56FF4F0F
S11305507183608380E0089581E008951F920F9273
S11305600FB60F9211242F933F934F935F936F9382
S11305707F938F939F93AF93BF93EF93FF93E091F8
S11305809400F0919500309709F00995FF91EF914F
S1130590BF91AF919F918F917F916F915F914F9197
S11305A03F912F910F900FBE0F901F9018951F929F
S11305B00F920FB60F9211242F933F934F935F9393
S11305C06F937F938F939F93AF93BF93EF93FF9317
S11305D0E0919600F0919700309709F00995FF910A
S11305E0EF91BF91AF919F918F917F916F915F91A7
S11305F04F913F912F910F900FBE0F901F90189520
S11306001F920F920FB60F9211242F933F934F9383
S11306105F936F937F938F939F93AF93BF93EF9366
S1130620FF93E0919800F0919900309709F00995B3
S1130630FF91EF91BF91AF919F918F917F916F91B6
S11306405F914F913F912F910F900FBE0F901F908C
S11306501895813089F028F0823031F0833039F0F8
S113066009C030E080E00AC038E080E007C038E428
S113067080E004C081E002C030E480E0811106C063
S113068023B7277B23BF93B7932B93BF08958F92F0
S11306909F92AF92BF92CF92DF92EF92FF92CF934D
S11306A0DF936B017C01423059F49B01AC0160E49F
S11306B072E48FE090E00E9405056B017C010AC0A2
S11306C0413041F4A8EEB3E09B01AC010E941B054C
S11306D06B017C0188E8C81683E1D806E104F104C3
S11306E0C8F088EAC81681E6D806E104F104A0F04F
S11306F088E4C81688EED80681E0E806F10470F0B4
S113070080E2C81681EAD80687E0E806F10440F4DE
S1130710D4E007C0D1E005C0D2E003C0D3E001C0FB
S1130720D5E0ED2FF0E03197EE0FFF1FE857FF4FB4
S113073060817181769567957695679576956795CD
S113074080E090E00E9477044B015C01C701B60190
S11307500E947704A50194010E94D6030E944804D4
S1130760F62EC72F80E00E942903F194F2BE83B7CE
S1130770887F83BF83B7D82BD3BF90E007C008B668
S113078000FEFDCF88B7816088BF9F5FC917B8F7A7
S113079083B7887F83BFDF91CF91FF90EF90DF9085
S11307A0CF90BF90AF909F908F9008950E94EA03DE
S11307B00C94CB040E94C40458F00E94BD0440F081
S11307C029F45F3F29F00C94B40451110C94FF04F4
S11307D00C94BA040E94DC0468F39923B1F3552302
S11307E091F3951B550BBB27AA2762177307840740
S11307F038F09F5F5F4F220F331F441FAA1FA9F3D6
S113080035D00E2E3AF0E0E832D091505040E695C3
S1130810001CCAF72BD0FE2F29D0660F771F881F24
S1130820BB1F261737074807AB07B0E809F0BB0B17
S1130830802DBF01FF2793585F4F3AF09E3F51052B
S113084078F00C94B4040C94FF045F3FE4F3983EF6
S1130850D4F3869577956795B795F7959F5FC9F714
S1130860880F911D9695879597F90895E1E0660F95
S1130870771F881FBB1F621773078407BA0720F00E
S1130880621B730B840BBA0BEE1F88F7E095089577
S11308900E94E40488F09F5798F0B92F9927B75124
S11308A0B0F0E1F0660F771F881F991F1AF0BA9510
S11308B0C9F714C0B13091F00E94FE04B1E008956C
S11308C00C94FE04672F782F8827B85F39F0B93F5E
S11308D0CCF3869577956795B395D9F73EF49095C3
S11308E08095709561957F4F8F4F9F4F0895E89441
S11308F009C097FB3EF490958095709561957F4F64
S11309008F4F9F4F9923A9F0F92F96E9BB27939511
S1130910F695879577956795B795F111F8CFFAF421
S1130920BB0F11F460FF1BC06F5F7F4F8F4F9F4F52
S113093016C0882311F096E911C0772321F09EE8B0
S1130940872F762F05C0662371F096E8862F70E016
S113095060E02AF09A95660F771F881FDAF7880FF0
S11309609695879597F9089597F99F6780E870E0C1
S113097060E008959FEF80EC089500240A94161611
S1130980170618060906089500240A941216130679
S1130990140605060895092E0394000C11F4882307
S11309A052F0BB0F40F4BF2B11F460FF04C06F5F23
S11309B07F4F8F4F9F4F089557FD9058440F551FF9
S11309C059F05F3F71F04795880F97FB991F61F0CD
S11309D09F3F79F087950895121613061406551F44
S11309E0F2CF4695F1DF08C0161617061806991FB0
S11309F0F1CF86957105610508940895E894BB27A5
S1130A0066277727CB0197F90895DB018F939F938E
S1130A100E941B05BF91AF91A29F800D911DA39FC2
S1130A20900DB29F900D11240895EE0FFF1F0590B5
S1130A30F491E02D09940E942605A59F900DB49F82
S1130A40900DA49F800D911D11240895A29FB001C3
S1130A50B39FC001A39F700D811D1124911DB29FEE
S1110A60700D811D1124911D0895F894FFCF8F
S1130A6E64008403C80020032C01BC02F401F401C9
S1130A7E2003C80003030201030202010004010063
S1130A8E0301000201000101010008004000000101
S1050A9E00044E
S9030000FC
