S00C0000733374322E73726563CC
S11300000C9432000C944F000C944F000C944F004D
S11300100C944F000C944F000C944F000C944F0020
S11300200C944F000C944F000C944F000C944F0010
S11300300C944F000C944F000C944F000C944F0000
S11300400C944F000C944F000C944F000C944F00F0
S11300500C944F00700076007C00820088008E00B3
S113006094009A0011241FBECFE5D8E0DEBFCDBFB7
S113007010E0A0E6B0E0E0EBF3E002C005900D92E2
S1130080A037B107D9F720E0A0E7B0E001C01D9286
S1130090A237B207E1F70E94F9000C94D6010C9440
S11300A000000E94C401089561E770E08CE690E0CE
S11300B00E94BC0080917100813009F04BC0809196
S11300C07000E1E0E80FE09370008E2F90E0FC01F7
S11300D03197E830F105A8F5E65DFF4F0C94D001A7
S11300E061E089E690E00E94AB002BC061E086E607
S11300F090E00E94AB0025C061E083E690E00E949E
S1130100AB001FC061E080E690E00E94AB0019C024
S113011060E089E690E00E94AB0013C060E086E6F0
S113012090E00E94AB000DC060E083E690E00E9486
S1130130AB0007C060E080E690E00E94AB00109244
S113014070002FE58AEE90E0215080409040E1F766
S113015000C000000895009759F0FC012281222379
S113016049F0462F618180810E94FE0080E008955D
S113017081E0089581E00895EF92FF920F931F9319
S1130180CF93DF931F92CDB7DEB7009719F16115B6
S1130190710511F1FC012381222301F17B018C0102
S11301A0AE014F5F5F4F618180810E948101F80140
S11301B08281811108C081E09981911180E0F70169
S11301C0808380E00EC0813059F48981F7018083F7
S11301D080E007C081E005C081E003C081E001C088
S11301E081E00F90DF91CF911F910F91FF90EF90DD
S11301F008950E9451000E945400FDCF683008F019
S113020078C041113CC0813099F028F08230E9F087
S1130210833041F170C02BB381E090E002C0880FBD
S1130220991F6A95E2F7809582238BBB80E008953D
S113023028B381E090E002C0880F991F6A95E2F725
S11302408095822388BB80E0089525B381E090E007
S113025002C0880F991F6A95E2F78095822385BBB7
S113026080E0089522B381E090E002C0880F991FD6
S11302706A95E2F78095822382BB80E0089541303D
S1130280E1F5813091F028F08230D9F0833029F102
S113029036C02BB381E090E002C0880F991F6A95A5
S11302A0E2F7822B8BBB80E0089528B381E090E0D5
S11302B002C0880F991F6A95E2F7822B88BB80E001
S11302C0089525B381E090E002C0880F991F6A95D4
S11302D0E2F7822B85BB80E0089522B381E090E0B1
S11302E002C0880F991F6A95E2F7822B82BB80E0D7
S11302F0089582E0089581E0089583E0089581E0FF
S1130300089541155105D1F16830D0F5813091F04F
S113031028F08230D9F0833029F134C089B390E0D9
S113032002C0959587956A95E2F78170FA018083FA
S113033080E0089586B390E002C0959587956A950C
S1130340E2F78170FA01808380E0089583B390E03E
S113035002C0959587956A95E2F78170FA018083CA
S113036080E0089580B390E002C0959587956A95E2
S1130370E2F78170FA01808380E0089582E00895B5
S113038082E0089581E008958EEF8ABB17BA14BA0B
S113039080E281BB81E08BBB18BA15BA12BA08950A
S11303A0EE0FFF1F0590F491E02D0994F894FFCF10
S11303B0000401000301000201000101000000012A
S9030000FC
